:020000040800F2
:10000000B008002099040008F5040008F504000871
:10001000F5040008F5040008F504000800000000DD
:10002000000000000000000000000000F5040008CF
:10003000F504000800000000F5040008B9010008FC
:10004000F5040008F5040008F5040008F5040008AC
:10005000F5040008F5040008F5040008F50400089C
:10006000F5040008F5040008F5040008F50400088C
:10007000F5040008F5040008F5040008F50400087C
:10008000F5040008F5040008F5040008F50400086C
:10009000F5040008F5040008F5040008F50400085C
:1000A000F5040008F5040008F5040008F50400084C
:1000B000F504000851100008F5040008F5040008D4
:1000C000F5040008F5040008F5040008F50400082C
:1000D000F5040008F5040008F5040008C903000849
:1000E000F5040008F5040008F5040008F50400080C
:1000F000F5040008F5040008F5040008F5040008FC
:10010000F5040008F5040008F5040008F5040008EB
:10011000FD03000831040008F5040008F504000898
:10012000F5040008F5040008F5040008F5040008CB
:10013000F5040008F5040008F5040008F5040008BB
:10014000F5040008F5040008F5040008F5040008AB
:10015000F5040008F5040008F5040008650400082B
:10016000F5040008F5040008F5040008F50400088B
:10017000F5040008F5040008F5040008F50400087B
:10018000F5040008F504000880B483B000AF78607F
:100190007B684FF47A7202FB03F2064B1A6000BFD1
:1001A000044B1B68002BFBD10C37BD465DF8047B6C
:1001B000704700BF4C00002080B400AF0D4B1B689F
:1001C0005A1C0C4B1A600C4B1B68002B04D00A4BBA
:1001D0001B685A1E084B1A60084B1B68002B04D082
:1001E000064B1B685A1E054B1A60BD465DF8047B22
:1001F000704700BF50000020540000204C00002039
:1002000080B483B000AF78607B689B889BB2C3F3F7
:1002100008039BB218460C37BD465DF8047B704757
:1002200080B487B000AF78600B467B800023FB6012
:1002300000237B610023BB600023FB747B88DBB25F
:100240005B09DBB2BB607B8803F01F037B617B69CA
:10025000012202FA03F37B61BB68012B06D17B68A4
:100260009B899BB27A6913407B610FE0BB68022BCC
:1002700006D17B681B8A9BB27A6913407B6105E0DB
:100280007B689B8A9BB27A6913407B617B881B0ADF
:100290009BB2FB60FB68012202FA03F3FB607B6800
:1002A0001B889BB2FA681340FB607B69002B05D06A
:1002B000FB68002B02D00123FB7401E00023FB74D8
:1002C000FB7C18461C37BD465DF8047B704700BFB9
:1002D00090B484B000AF02460B46FA71BB80FA7945
:1002E00024491346DB009B1ADB000B4430335B8848
:1002F000FB81FA79FC89BB88D9B21E481346DB0022
:100300009B1ADB00234403440A461A70FB8901331D
:10031000FB81FB89312B01D90023FB81FA79154937
:100320001346DB009B1ADB000B443033FA895A80FA
:10033000FA7910491346DB009B1ADB000B4430337B
:100340005988FA790B481346DB009B1ADB000344FB
:1003500030339B88994209D1FA7906491346DB006C
:100360009B1ADB000B44303302229A711037BD46D2
:1003700090BC70476000002080B584B000AF02469A
:100380000B46FA71BB800023FB7315E0FA7B0D4925
:100390001346DB009B1ADB000B4410331B79FA7900
:1003A0009A4206D1FA7BBB8810461946FFF790FFA8
:1003B00005E0FB7B0133FB73FB7B002BE6D01037A2
:1003C000BD4680BD0000002080B582B000AF0A4865
:1003D00040F22551FFF724FF0346012B09D10648BF
:1003E000FFF70EFF0346FB80FB8827201946FFF727
:1003F000C3FF0837BD4680BD0048004080B582B0CD
:1004000000AF0A4840F22551FFF70AFF0346012BCF
:1004100009D10648FFF7F4FE0346FB80FB88342031
:100420001946FFF7A9FF0837BD4680BD004C0040C4
:1004300080B582B000AF0A4840F22551FFF7F0FEC8
:100440000346012B09D10648FFF7DAFE0346FB807D
:10045000FB8835201946FFF78FFF0837BD4680BD62
:100460000050004080B582B000AF0A4840F22551EC
:10047000FFF7D6FE0346012B09D10648FFF7C0FE61
:100480000346FB80FB8847201946FFF775FF0837B6
:10049000BD4680BD0014014080B582B000AF104B56
:1004A0007B60104B3B6007E03B681A1D3A607A683E
:1004B000111D796012681A603A680B4B9A42F3D3A7
:1004C0000A480B494FF000028842B8BF40F8042B9D
:1004D000FFF6FAAF00F012F80837BD4680BD00BF46
:1004E00008110008000000204C0000204C000020F3
:1004F000B000002080B400AFFEE700BF80B400AFC2
:10050000FEE700BF80B489B000AF78600023BB6114
:1005100000237B610023FB6102233B610023FB601E
:100520000223BB60484B9B6803F00C03BB61BB69B3
:10053000042B07D0082B09D0002B3FD17B68434AFE
:100540001A603FE07B68424A1A603BE03E4B5B68C2
:1005500003F480039B0DFB603B4B5B6803F03F03A0
:10056000BB60FB68002B0DD0394ABB68B2FBF3F2CD
:10057000354B596847F6C0730B409B0903FB02F3E8
:10058000FB610CE0314ABB68B2FBF3F22E4B5968B9
:1005900047F6C0730B409B0903FB02F3FB612A4B38
:1005A0005B6803F440331B0C01335B003B61FA6969
:1005B0003B69B2FBF3F27B681A6003E07B68234A75
:1005C0001A6000BF204B9B6803F0F003BB61BB695E
:1005D0001B09BB611F4ABB6913441B78DBB27B61FB
:1005E0007B681A687B69DA407B685A60164B9B68A7
:1005F00003F4E053BB61BB699B0ABB61154ABB694D
:1006000013441B78DBB27B617B685A687B69DA40F4
:100610007B689A600C4B9B6803F46043BB61BB69C9
:100620005B0BBB610B4ABB6913441B78DBB27B617C
:100630007B685A687B69DA407B68DA602437BD469C
:100640005DF8047B704700BF003802400024F400CE
:1006500000127A003800002080B483B000AF7860C8
:100660000B46FB70FB78002B06D0094B084A116A39
:100670007A680A431A6206E0054B054A116A7A68ED
:10068000D2430A401A620C37BD465DF8047B7047BE
:100690000038024080B582B000AF0346FB71FB79A1
:1006A00018460021512200F0D7FB0837BD4680BD17
:1006B00080B588B000AF0346FB71FB791846002176
:1006C00000F0CEFA0346FB83FB8BFF2BF5D0002313
:1006D000FB83FB791846022100F0C2FA03469BB265
:1006E0001B02FB83FB791846032100F0B9FA03468D
:1006F0009AB2FB8B1344FB83074B1B88FA8B9A42FD
:1007000002D2FB8B002B02D1034B1B88FB83FB8B9C
:1007100018462037BD4680BD4800002080B582B015
:1007200000AF3E4B1B78002B3AD10023FB710BE04E
:10073000FB793B4AD35C1846FFF7ACFF0A20FFF772
:1007400023FDFB790133FB71FB79042BF0D9EA23FC
:100750001846FFF7ADFF0346DAB2324B1A70EE23AC
:100760001846FFF7A5FF0346DAB22F4B1A70E023B5
:100770001846FFF79DFF0346DAB22C4B1A70EC23A4
:100780001846FFF795FF0346DAB2294B1A70E223A9
:100790001846FFF78DFF0346DAB2264B1A7039E090
:1007A0000023FB710BE0FB79234AD35C1846FFF76B
:1007B00071FF0A20FFF7E8FCFB790133FB71FB793D
:1007C000042BF0D9E6231846FFF772FF0346DAB28E
:1007D0001A4B1A70E2231846FFF76AFF0346DAB293
:1007E000144B1A70E0231846FFF762FF0346DAB293
:1007F0000E4B1A70E4231846FFF75AFF0346DAB28D
:100800000F4B1A70EE231846FFF752FF0346DAB279
:10081000054B1A700837BD4680BD00BFA6000020FA
:10082000F4100008A9000020AD000020980000206E
:10083000AA000020AB000020FC100008AC00002043
:10084000A700002080B582B000AF78607A68174BAF
:100850009A420AD14FF400100121FFF7FDFE4FF438
:1008600000100021FFF7F8FE1CE07A68104B9A4256
:100870000AD14FF480000121FFF7EEFE4FF4800013
:100880000021FFF7E9FE0DE07A680A4B9A4209D190
:100890004FF400000121FFF7DFFE4FF400000021BC
:1008A000FFF7DAFE0837BD4680BD00BF00540040A8
:1008B00000580040005C004080B58AB000AF78600E
:1008C00039600023FB8400237B840423BB84574BC3
:1008D000FB617B689B88FB84FB8C23F03F03FB84DC
:1008E00007F10C031846FFF70DFE7B69FB61FA69FF
:1008F0004F4BA3FB02139B0C7B84FA8C7B8C134322
:10090000FB847B68FA8C9A807B681B889BB223F0FF
:1009100001039AB27B681A800023FB843B681A6843
:10092000444B9A4215D83B681B685B00FA69B2FBDE
:10093000F3F3BB84BB8C032B01D80423BB84FA8C58
:10094000BB8C1343FB847B8C01339AB27B681A8483
:1009500040E03B68DA884BF6FF739A4209D13B6866
:100960001A6813465B001344FA69B2FBF3F3BB84C5
:100970000EE03B681A6813469B0013449A00134428
:10098000FA69B2FBF3F3BB84BB8C43F48043BB84B2
:10099000BB8CC3F30B03002B03D1BB8C43F00103CF
:1009A000BB84BA8CFB8C13439BB26FEA43436FEA60
:1009B0005343FB847B8C4FF4967202FB03F31E4A75
:1009C00082FB03129211DB17D31A9BB201339AB246
:1009D0007B681A847B68FA8C9A837B681B889BB23D
:1009E00043F001039AB27B681A807B681B88FB8402
:1009F000FB8C23F4816323F00203FB843B689A8819
:100A00003B685B8913439AB2FB8C1343FB847B687E
:100A1000FA8C1A803B689A893B681B8913439AB207
:100A20007B681A812837BD4680BD00BF00127A005E
:100A300083DE1B43A0860100D34D621080B483B0D7
:100A400000AF78600B46FB70FB78002B08D07B680A
:100A50001B889BB243F001039AB27B681A8007E0BF
:100A60007B681B889BB223F001039AB27B681A80D3
:100A70000C37BD465DF8047B704700BF80B483B07F
:100A800000AF78600B46FB70FB78002B08D07B68CA
:100A90001B889BB243F480739AB27B681A8007E08C
:100AA0007B681B889BB223F480739AB27B681A80A0
:100AB0000C37BD465DF8047B704700BF80B483B03F
:100AC00000AF78600B46FB70FB78002B08D07B688A
:100AD0001B889BB243F400739AB27B681A8007E0CC
:100AE0007B681B889BB223F400739AB27B681A80E0
:100AF0000C37BD465DF8047B704700BF80B483B0FF
:100B000000AF786013460A46FA70BB70BB78002BC2
:100B100004D0FB7843F00103FB7003E0FB7823F083
:100B20000103FB70FB789AB27B681A820C37BD46D2
:100B30005DF8047B704700BF80B483B000AF78607D
:100B40000B46FB70FB78002B08D07B681B889BB2A0
:100B500043F480639AB27B681A8007E07B681B8845
:100B60009BB223F480639AB27B681A800C37BD462F
:100B70005DF8047B704700BF80B483B000AF78603D
:100B80000B46FB70FB78002B0AD07B681B889BB25E
:100B90006FEA43436FEA53439AB27B681A8007E0D7
:100BA0007B681B889BB2C3F30E039AB27B681A80E2
:100BB0000C37BD465DF8047B704700BF80B483B03E
:100BC00000AF78600B46FB70FB789AB27B681A82A4
:100BD0000C37BD465DF8047B704700BF80B483B01E
:100BE00000AF78607B681B8A9BB2DBB218460C377B
:100BF000BD465DF8047B704780B487B000AF786075
:100C000039600023FB7500233B610023FB607B6898
:100C1000FB603B681B0F3B613B6823F07F433B60FD
:100C20003B69002B03D0FB681433FB6005E03B6895
:100C30001B0C3B60FB681833FB60FB681A683B6861
:100C40001340002B02D00123FB7501E00023FB754C
:100C5000FB7D18461C37BD465DF8047B704700BF1E
:100C600080B584B000AF02460B46FA71BB71002319
:100C70007B814FF44053FB6071480121FFF7FEFE7A
:100C80004FF44053FB600CE0FB68002B03D0FB6883
:100C9000013BFB6005E04FF0FF3000F0B9F903467F
:100CA000C8E067486749FFF7A7FF0346002BEBD072
:100CB00063480021FFF740FFFB7961481946002295
:100CC000FFF71CFF4FF44053FB600CE0FB68002B68
:100CD00003D0FB68013BFB6005E06FF0010000F012
:100CE00097F90346A6E056485749FFF785FF0346A4
:100CF000002BEBD0524B1B8B4FF44053FB600CE0AE
:100D0000FB68002B03D0FB68013BFB6005E06FF044
:100D1000020000F07DF903468CE049484B49FFF79B
:100D20006BFF0346002BEBD0BB7945481946FFF714
:100D300045FF4FF44053FB600CE0FB68002B03D0F1
:100D4000FB68013BFB6005E06FF0030000F060F919
:100D500003466FE03A483D49FFF74EFF0346002B3C
:100D6000EBD037483A49FFF747FF0346002BE4D062
:100D700033480121FFF782FE4FF44053FB600CE043
:100D8000FB68002B03D0FB68013BFB6005E06FF0C4
:100D9000040000F03DF903464CE029482949FFF7DB
:100DA0002BFF0346002BEBD0FB7925481946012287
:100DB000FFF7A4FE4FF44053FB600CE0FB68002BF0
:100DC00003D0FB68013BFB6005E06FF0050000F01D
:100DD0001FF903462EE01A481B49FFF70DFF034693
:100DE000002BEBD0164B1B8B4FF44053FB600CE0F9
:100DF000FB68002B03D0FB68013BFB6005E06FF054
:100E0000060000F005F9034614E00D481149FFF70C
:100E1000F3FE0346002BEBD009480121FFF74EFEFD
:100E20000748FFF7DBFE03467B8105480121FFF7FA
:100E300083FE7B891BB218461037BD4680BD00BFBC
:100E40000058004001000010020000108000001057
:100E5000040000104000001080B584B000AF1346BD
:100E60000246FA710A46BA717B7100237B814FF406
:100E70004053FB6050480121FFF700FE4FF4405300
:100E8000FB600CE0FB68002B03D0FB68013BFB60C0
:100E900005E04FF0FF3000F0BBF8034686E046481F
:100EA0004649FFF7A9FE0346002BEBD0FB794248E9
:100EB00019460022FFF722FE4FF44053FB600CE07E
:100EC000FB68002B03D0FB68013BFB6005E06FF083
:100ED000010000F09DF8034668E037483849FFF705
:100EE0008BFE0346002BEBD0334B1B8B4FF4405350
:100EF000FB600CE0FB68002B03D0FB68013BFB6050
:100F000005E06FF0020000F083F803464EE02A4847
:100F10002C49FFF771FE0346002BEBD0BB79264826
:100F20001946FFF74BFE4FF44053FB600CE0FB68A3
:100F3000002B03D0FB68013BFB6005E06FF0030072
:100F400000F066F8034631E01B481E49FFF754FEE7
:100F50000346002BEBD07B7917481946FFF72EFE8E
:100F60004FF44053FB600CE0FB68002B03D0FB68A0
:100F7000013BFB6005E06FF0040000F049F8034618
:100F800014E00D480F49FFF737FE0346002BEBD066
:100F900009480D49FFF730FE0346002BE4D0064810
:100FA0000121FFF78BFD00237B817B891BB2184653
:100FB0001037BD4680BD00BF005800400100001042
:100FC00002000010800000100400001080B584B002
:100FD00000AF0023BB804BF6FF73FB8000233B81F7
:100FE0004FF480637B814FF48043BB81064B3B60B1
:100FF00006480121FFF722FD3B4604481946FFF74A
:101000005BFC1037BD4680BDA08601000058004043
:1010100080B584B000AF0346FB80FB88FB810B48A2
:101020000121FFF74BFD09480121FFF7A5FD074806
:101030000021FFF7A1FD0548FFF704FCFFF7C6FFFD
:10104000FB891BB218461037BD4680BD00580040D2
:1010500080B500AF0848012100F012F80346002BCC
:1010600009D00548012100F035F8044B1B68002B1E
:1010700001D0FFF753FB80BD000400405C0000205E
:1010800080B485B000AF78600B467B800023FB7393
:101090000023BB8100237B817B681B8A9AB27B88FB
:1010A0001340BB817B689B899AB27B8813407B810C
:1010B000BB89002B05D07B89002B02D00123FB7359
:1010C00001E00023FB73FB7B18461437BD465DF837
:1010D000047B704780B483B000AF78600B467B80A0
:1010E0007B88DB439AB27B681A820C37BD465DF879
:1010F000047B7047EAEEE0ECE2000000E6E2E0E4A8
:08110000EE0000002533690038
:101108000000000000000400070000000048004044
:1011180000C2010027000000000C0240000100008E
:101128000800000008000000000C02400002000057
:10113800080000000900000000000000010203048C
:0C114800010203040607080946001B0012
:0400000508000000EF
:00000001FF
