:020000040800F2
:1000000070090020D10B00082D0C00082D0C0008F1
:100010002D0C00082D0C00082D0C0008000000001D
:100020000000000000000000000000002D0C00088F
:100030002D0C0008000000002D0C000851020008E3
:100040002D0C00082D0C00082D0C00082D0C0008AC
:100050002D0C00082D0C00082D0C00082D0C00089C
:100060002D0C00082D0C00082D0C00082D0C00088C
:100070002D0C00082D0C00082D0C00082D0C00087C
:100080002D0C00082D0C00082D0C00082D0C00086C
:100090002D0C00082D0C00082D0C00082D0C00085C
:1000A0002D0C00082D0C00082D0C00082D0C00084C
:1000B0002D0C0008B52300082D0C00082D0C00089D
:1000C0002D0C00082D0C00082D0C00082D0C00082C
:1000D0002D0C000891120008CD0A0008010B000841
:1000E0002D0C00082D0C00082D0C00082D0C00080C
:1000F0002D0C00082D0C00082D0C00082D0C0008FC
:100100002D0C00082D0C00082D0C00082D0C0008EB
:10011000350B0008690B00082D0C00082D0C000899
:100120002D0C00082D0C00082D0C00082D0C0008CB
:100130002D0C00082D0C00082D0C00082D0C0008BB
:100140002D0C00082D0C00082D0C00082D0C0008AB
:100150002D0C00082D0C00082D0C00089D0B00082C
:100160002D0C00082D0C00082D0C00082D0C00088B
:100170002D0C00082D0C00082D0C00082D0C00087B
:100180002D0C00082D0C000880B483B000AF03468E
:100190003960FB7197F90730002B0BDA0D49FB79B9
:1001A00003F00F03043B3A68D2B21201D2B20B44FF
:1001B0001A7609E0084997F907303A68D2B2120175
:1001C000D2B20B4483F800230C37BD465DF8047BA4
:1001D000704700BF00ED00E000E100E080B582B0B4
:1001E00000AF78607B68B3F1807F01D3012311E019
:1001F0000A4B7A6822F07F42013A5A604FF0FF3092
:100200000F21FFF7C1FF054B00229A60034B072225
:100210001A60002318460837BD4680BD10E000E094
:1002200080B483B000AF78607B684FF47A7202FBD1
:1002300003F2064B1A6000BF044B1B68002BFBD176
:100240000C37BD465DF8047B704700BFC800002036
:1002500080B400AF0D4B1B685A1C0C4B1A600C4B42
:100260001B68002B04D00A4B1B685A1E084B1A60EF
:10027000084B1B68002B04D0064B1B685A1E054B0D
:100280001A60BD465DF8047B704700BFCC000020BB
:10029000D0000020C800002080B500AF0F4B1B78B5
:1002A000002B00D018E0012000F022FD00BF00F07C
:1002B00031FD0346002BFAD0094B1A68094BA3FB0A
:1002C00002139B0C1846FFF789FF0346002B00D052
:1002D000FEE7024B01221A7080BD00BFD40000204F
:1002E0009000002083DE1B4380B582B000AF7860B1
:1002F0007A682B4B9A4208D11020012100F054FE5D
:100300001020002100F050FE47E07A68254B9A4209
:100310000AD14FF40030012100F028FE4FF40030E4
:10032000002100F023FE38E07A681F4B9A420AD180
:100330004FF48020012100F019FE4FF480200021AD
:1003400000F014FE29E07A68184B9A420AD14FF463
:100350000020012100F00AFE4FF40020002100F0EF
:1003600005FE1AE07A68124B9A420AD14FF48010C7
:10037000012100F0FBFD4FF48010002100F0F6FD9C
:100380000BE07A680B4B9A4207D12020012100F044
:100390000BFE2020002100F007FE0837BD4680BD7F
:1003A000001001400044004000480040004C004064
:1003B000005000400014014080B58AB000AF786062
:1003C000396000237B6200233B620023FB61002332
:1003D000BB617B681B8A9BB27B627B6A23F44053C0
:1003E0007B623B68DB887A6A13437B627B6A9AB2E2
:1003F0007B681A827B689B899BB27B627B6A23F451
:10040000B05323F00C037B623B689A883B681B89DE
:1004100013439AB23B685B8913439BB27A6A1343D6
:100420007B627B6A9AB27B689A817B689B8A9BB26B
:100430007B627B6A23F440737B623B689B897A6AA8
:1004400013437B627B6A9AB27B689A8207F1080346
:10045000184600F087FC7A68314B9A4203D07A68DC
:10046000304B9A4202D17B693B6201E03B693B62BF
:100470007B689B899BB29BB21BB2002B0CDA3A6A59
:1004800013469B0013449A001A443B681B685B00A8
:10049000B2FBF3F3FB610BE03A6A13469B00134493
:1004A0009A001A443B681B689B00B2FBF3F3FB61A4
:1004B000FA691D4BA3FB02135B091B017B627B6A7C
:1004C0001B09642202FB03F3FA69D31ABB617B6840
:1004D0009B899BB29BB21BB2002B0DDABB69DB0080
:1004E00003F13202104BA3FB02135B0903F0070375
:1004F0007A6A13437B620CE0BB691B0103F1320291
:10050000094BA3FB02135B0903F00F037A6A134341
:100510007B627B6A9AB27B681A812837BD4680BDB0
:1005200000100140001401401F85EB5180B483B0DE
:1005300000AF78600B46FB70FB78002B08D07B681F
:100540009B899BB243F400539AB27B689A8107E07F
:100550007B689B899BB223F400539AB27B689A8193
:100560000C37BD465DF8047B704700BF80B483B094
:1005700000AF78600B46FB70FB78002B0AD07B68DD
:100580009B899BB26FEA43436FEA53439AB27B68FD
:100590009A8107E07B689B899BB2C3F30E039AB2F2
:1005A0007B689A810C37BD465DF8047B704700BFBD
:1005B00080B483B000AF78607B689B889BB2C3F344
:1005C00008039BB218460C37BD465DF8047B7047A4
:1005D00080B487B000AF786013460A467A807B709B
:1005E00000233B610023FB600023BB6000237B6191
:1005F0007B687B617B88DBB25B09DBB23B617B881C
:1006000003F01F03FB60FB68012202FA03F3BB60E7
:100610003B69012B03D17B690C337B6109E03B69AA
:10062000022B03D17B6910337B6102E07B691433B9
:100630007B617B78002B06D07B697A691168BA6888
:100640000A431A6006E07B697A691168BA68D24386
:100650000A401A601C37BD465DF8047B704700BF36
:1006600080B487B000AF78600B467B800023FB60CE
:1006700000237B610023BB600023FB747B88DBB21B
:100680005B09DBB2BB607B8803F01F037B617B6986
:10069000012202FA03F37B61BB68012B06D17B6860
:1006A0009B899BB27A6913407B610FE0BB68022B88
:1006B00006D17B681B8A9BB27A6913407B6105E097
:1006C0007B689B8A9BB27A6913407B617B881B0A9B
:1006D0009BB2FB60FB68012202FA03F3FB607B68BC
:1006E0001B889BB2FA681340FB607B69002B05D026
:1006F000FB68002B02D00123FB7401E00023FB7494
:10070000FB7C18461C37BD465DF8047B704700BF74
:1007100090B589B000AF0023FB774BE1FA7FA94980
:100720001346DB009B1ADB000B4420331B68184682
:10073000012100F0C1FBFA7FA2491346DB009B1A9E
:10074000DB000B4430331B681846012100F0B4FB7A
:10075000FA7F9C491346DB009B1ADB000B440833ED
:100760005A68994B9A420BD0FA7F96491346DB00A0
:100770009B1ADB000B4408335A68944B9A420CD105
:10078000FA7F90491346DB009B1ADB000B445B6841
:100790001846012100F0CCFB0BE0FA7F8949134693
:1007A000DB009B1ADB000B445B681846012100F05C
:1007B000A1FBFA7F83491346DB009B1ADB000B4445
:1007C00018331868FA7F7F491346DB009B1ADB0059
:1007D0000B4420331B791946FA7F7A4C1346DB0011
:1007E0009B1ADB00234408331B781A4600F06CFE8A
:1007F000FA7F74491346DB009B1ADB000B44283355
:100800001868FA7F6F491346DB009B1ADB000B4424
:1008100030331B791946FA7F6A4C1346DB009B1A6A
:10082000DB00234408331B781A4600F04DFE0223F8
:100830003B7603237B760023BB760123FB76FA7F8E
:1008400060491346DB009B1ADB000B4418339B887E
:100850007B61FA7F5B491346DB009B1ADB000B448C
:1008600018331A6807F114031046194600F090FD7A
:10087000FA7F54491346DB009B1ADB000B442833F4
:100880009B887B61FA7F4F491346DB009B1ADB0094
:100890000B4428331A6807F114031046194600F078
:1008A00077FDFA7F47491346DB009B1ADB000B44B8
:1008B00008335B6818460121FFF758FEFA7F41496B
:1008C0001346DB009B1ADB000B4410331B687B6074
:1008D00000233B8100237B810023BB8100233B82DB
:1008E0000C23FB81FA7F37491346DB009B1ADB00A0
:1008F0000B4408335A683B1D10461946FFF75CFD50
:10090000FA7F30491346DB009B1ADB000B440833A7
:100910005B6818460121FFF709FEFA7F2949134653
:10092000DB009B1ADB000B4408335B68184640F27F
:1009300025510122FFF74CFEFA7F22491346DB00C6
:100940009B1ADB000B4410331B793B7000237B7038
:100950000023BB700123FB703B46184601F086F96B
:10096000FA7F1B491346DB009B1ADB000B440D2268
:100970001A70FA7F16491346DB009B1ADB000B4402
:10098000303300225A80FA7F11491346DB009B1A4C
:10099000DB000B44303300229A80FA7F0C49134667
:1009A000DB009B1ADB000B44303300229A71FB7F83
:1009B0000133FB77FB7F002B3FF4B0AE2437BD46FD
:1009C00090BD00BF00000020001001400014014055
:1009D000F800002090B484B000AF02460B46FA71D4
:1009E000BB80FA7924491346DB009B1ADB000B44D9
:1009F00030335B88FB81FA79FC89BB88D9B21E4809
:100A00001346DB009B1ADB00234403440A461A709A
:100A1000FB890133FB81FB89312B01D90023FB8149
:100A2000FA7915491346DB009B1ADB000B4430337F
:100A3000FA895A80FA7910491346DB009B1ADB00C9
:100A40000B4430335988FA790B481346DB009B1A64
:100A5000DB00034430339B88994209D1FA79064977
:100A60001346DB009B1ADB000B44303302229A71E1
:100A70001037BD4690BC7047F800002080B584B0A8
:100A800000AF02460B46FA71BB800023FB7315E0F2
:100A9000FA7B0D491346DB009B1ADB000B44103335
:100AA0001B79FA799A4206D1FA7BBB88104619461F
:100AB000FFF790FF05E0FB7B0133FB73FB7B002B13
:100AC000E6D01037BD4680BD0000002080B582B062
:100AD00000AF0A4840F22551FFF7C2FD0346012B43
:100AE00009D10648FFF764FD0346FB80FB882620FA
:100AF0001946FFF7C3FF0837BD4680BD00440040DC
:100B000080B582B000AF0A4840F22551FFF7A8FD3A
:100B10000346012B09D10648FFF74AFD0346FB8037
:100B2000FB8827201946FFF7A9FF0837BD4680BD7F
:100B30000048004080B582B000AF0A4840F225511D
:100B4000FFF78EFD0346012B09D10648FFF730FD64
:100B50000346FB80FB8834201946FFF78FFF0837D8
:100B6000BD4680BD004C004080B582B000AF0A4851
:100B700040F22551FFF774FD0346012B09D10648C9
:100B8000FFF716FD0346FB80FB8835201946FFF76B
:100B900075FF0837BD4680BD0050004080B582B06B
:100BA00000AF0A4840F22551FFF75AFD0346012BDA
:100BB00009D10648FFF7FCFC0346FB80FB88472071
:100BC0001946FFF75BFF0837BD4680BD00140140A2
:100BD00080B582B000AF104B7B60104B3B6007E0EC
:100BE0003B681A1D3A607A68111D796012681A60B4
:100BF0003A680B4B9A42F3D30A480B494FF0000274
:100C00008842B8BF40F8042BFFF6FAAF00F012F8A4
:100C10000837BD4680BD00BF7024000800000020DA
:100C2000C8000020C80000206C01002080B400AF84
:100C3000FEE700BF80B582B000AF6423FB710F4BAD
:100C4000BB7100F087FC00F01FF80D4800F078FA47
:100C500000BF0B4800F05AFA0346002BF9D10848B0
:100C600000F01AFA03467B717B79012B05D9054800
:100C70004FF4805100F01AFCE7E7E6E7582400083B
:100C800000100140000C024080B500AFFFF704FBEC
:100C900001F04AF8FFF73CFD00F00AF80348012193
:100CA0004FF4165200F0D8F980BD00BF001001408B
:100CB00080B500AF0820012100F0FEF80A4B4FF488
:100CC00070421A60084B01221A71074B03225A71B5
:100CD000054B00229A71044B0222DA710348024943
:100CE00000F056FB80BD00BF3C010020000C02401C
:100CF00080B483B000AF0346FB71054B00221A702D
:100D0000034BFA791A700C37BD465DF8047B7047C7
:100D10000238024080B582B000AF00233B60002360
:100D2000FB710023BB71312000F05CF90346BB71FD
:100D30003B6801333B603B68B3F5A06F02D0BB79E1
:100D4000002BF0D0312000F04DF90346002B02D0EB
:100D50000123FB7101E00023FB71FB791846083782
:100D6000BD4680BD80B489B000AF78600023BB6110
:100D700000237B610023FB6102233B610023FB60B6
:100D80000223BB60484B9B6803F00C03BB61BB694B
:100D9000042B07D0082B09D0002B3FD17B68434A96
:100DA0001A603FE07B68424A1A603BE03E4B5B685A
:100DB00003F480039B0DFB603B4B5B6803F03F0338
:100DC000BB60FB68002B0DD0394ABB68B2FBF3F265
:100DD000354B596847F6C0730B409B0903FB02F380
:100DE000FB610CE0314ABB68B2FBF3F22E4B596851
:100DF00047F6C0730B409B0903FB02F3FB612A4BD0
:100E00005B6803F440331B0C01335B003B61FA6900
:100E10003B69B2FBF3F27B681A6003E07B68234A0C
:100E20001A6000BF204B9B6803F0F003BB61BB69F5
:100E30001B09BB611F4ABB6913441B78DBB27B6192
:100E40007B681A687B69DA407B685A60164B9B683E
:100E500003F4E053BB61BB699B0ABB61154ABB69E4
:100E600013441B78DBB27B617B685A687B69DA408C
:100E70007B689A600C4B9B6803F46043BB61BB6961
:100E80005B0BBB610B4ABB6913441B78DBB27B6114
:100E90007B685A687B69DA407B68DA602437BD4634
:100EA0005DF8047B704700BF003802400024F40066
:100EB00000127A007000002080B483B000AF786028
:100EC0000B46FB70FB78002B06D0094B084A116BD0
:100ED0007A680A431A6306E0054B054A116B7A6883
:100EE000D2430A401A630C37BD465DF8047B704755
:100EF0000038024080B483B000AF78600B46FB70CE
:100F0000FB78002B06D0094B084A116C7A680A431B
:100F10001A6406E0054B054A116C7A68D2430A4010
:100F20001A640C37BD465DF8047B704700380240F8
:100F300080B483B000AF78600B46FB70FB78002B69
:100F400006D0094B084A516C7A680A435A6406E095
:100F5000054B054A516C7A68D2430A405A640C37F3
:100F6000BD465DF8047B70470038024080B483B012
:100F700000AF78600B46FB70FB78002B06D0094B66
:100F8000084A116A7A680A431A6206E0054B054A64
:100F9000116A7A68D2430A401A620C37BD465DF87E
:100FA000047B70470038024080B483B000AF7860A3
:100FB0000B46FB70FB78002B06D0094B084A516AA0
:100FC0007A680A435A6206E0054B054A516A7A6814
:100FD000D2430A405A620C37BD465DF8047B704725
:100FE0000038024080B487B000AF0346FB71002395
:100FF000FB6000237B610023FB74FB795B09DBB2A0
:10100000FB60FB68012B03D1124B1B687B6109E07D
:10101000FB68022B03D10F4B1B6F7B6102E00D4B72
:101020005B6F7B61FB7903F01F03FB60FB687A69F0
:1010300022FA03F303F00103002B02D00123FB7417
:1010400001E00023FB74FB7C18461C37BD465DF8AD
:10105000047B70470038024080B588B004AFF86068
:101060000B467A60FB72FA680A4B9A420ED1FB7A01
:101070000C2200920022019200220292002203928E
:10108000044819467A68002300F018F91037BD4665
:1010900080BD00BF0010014080B584B000AF786013
:1010A0000023FB73786800F099F8B860BB68DB88B0
:1010B000002B05D1BB681A89BB685B899A421FD097
:1010C000BB685A89BB689B889A4202D1BB680022E0
:1010D0005A81BB681A68BB685B8913441B78FB7331
:1010E000BB685B8901339AB2BB685A81BB68DB88F5
:1010F000002B05D0BB68DB88013B9AB2BB68DA8065
:10110000FB7B18461037BD4680BD00BF80B584B05C
:1011100000AF7860786800F061F8F860FB68DB8801
:10112000002B07D1FB681A89FB685B899A4201D1C1
:10113000012300E00023DBB218461037BD4680BD16
:1011400080B584B000AF7860786800F047F8F86048
:10115000FB680022DA80FB6800221A81FB6800220B
:101160005A811037BD4680BD80B483B000AF78602F
:101170000B46FB707B68DA887B689B889A421BD29F
:101180007B681A897B689B889A4202D17B6800221F
:101190001A817B681A687B681B891344FA781A7075
:1011A0007B681B8901339AB27B681A817B68DB8874
:1011B00001339AB27B68DA800C37BD465DF8047B58
:1011C000704700BF80B483B000AF78600B467B806F
:1011D0000C37BD465DF8047B704700BF80B485B016
:1011E00000AF78607A68064B9A4201D1054BFB60EC
:1011F000FB6818461437BD465DF8047B704700BF96
:10120000001001408000002080B485B000AF7860FD
:101210007A68064B9A4201D10023FB73FB7B184688
:101220001437BD465DF8047B704700BF00100140D5
:1012300080B584B002AF0346FB71FB79002B0AD165
:1012400003230093072301930E484FF4C06100224B
:10125000012300F0BDFFFB79012B09D1032300938B
:10126000072301930848C0210022012300F0B0FFAA
:10127000FB79032B03D105480721FFF7A3FF0837AC
:10128000BD4680BD00000240000402400010014045
:1012900080B500AF074B1B889BB203F02003002BE7
:1012A00007D0044B9B889BB2DBB203481946FFF77B
:1012B0005BFF80BD001001408000002080B58CB035
:1012C00000AFF8607A600A46FA723B81F868FFF76F
:1012D00085FFF8627B68FB61FA682B4B9A420BD161
:1012E0002A4B2A4A526C42F010025A64FB7A184682
:1012F000FFF79EFF25233B76F868FEF7F5FF0123F5
:10130000FB7606237B76F868FFF77EFF0346BB7605
:1013100007F11803184600F0A9FC3B893B85BB6B1D
:101320009BB2FB84FB6B9BB2BB843B6C9BB27B840C
:101330007B6C9BB23B84FB6A00221A7340F6FF73FE
:101340007B6100BF7B695A1E7A61002BFAD107F1DD
:101350001C03F8681946FFF72FF8FB689B899BB2BE
:1013600043F020039AB2FB689A81FB6A01221A7348
:10137000FB689B899BB243F400539AB2FB689A8145
:101380003037BD4680BD00BF00100140003802402C
:1013900080B487B000AF7860396000237B610023A0
:1013A0003B610023FB6000237B6176E07B690122C7
:1013B00002FA03F33B613B681A683B691340FB6028
:1013C000FA683B699A4265D17B681A687B695B0061
:1013D000032101FA03F3DB431A407B681A607B6840
:1013E0001A683B681B7919467B695B0001FA03F3B5
:1013F0001A437B681A603B681B79012B03D03B685A
:101400001B79022B2ED17B689A687B695B000321D4
:1014100001FA03F3DB431A407B689A607B689A68A1
:101420003B685B7919467B695B0001FA03F31A4359
:101430007B689A607B685A687B699BB2012101FADC
:1014400003F3DB431A407B685A607B685A683B6849
:101450009B7919467B699BB201FA03F39BB21A434D
:101460007B685A607B68DA687B699BB25B0003210A
:1014700001FA03F3DB431A407B68DA607B68DA68C1
:101480003B68DB7919467B695B0001FA03F31A4379
:101490007B68DA607B6901337B617B690F2B85D9BF
:1014A0001C37BD465DF8047B704700BF80B483B035
:1014B00000AF78600B467B807B687A881A830C3794
:1014C000BD465DF8047B704780B485B000AF78609E
:1014D00013460A467A807B700023FB600023BB60C2
:1014E0007A787B8803F007039B0002FA03F3FB6022
:1014F0007B88DB089BB21A467B88DB089BB21946C7
:101500007B68083153F821107B8803F007039B00A8
:101510000F2000FA03F3DB4319407B68083243F8DD
:1015200022107B88DB089BB21A467B68083253F88E
:101530002220FB681343BB607B88DB089BB21A4602
:101540007B680832B96843F822101437BD465DF84D
:10155000047B704780B500AF114B114A126842F00E
:1015600001021A600E4B00229A600D4A0C4B1B6858
:1015700023F0847323F480331360094B094A5A60C3
:10158000074B074A126822F480221A60044B00229B
:10159000DA6000F00BF8044B4FF000629A6080BDF7
:1015A000003802401030002400ED00E080B483B029
:1015B00000AF00237B6000233B60354B344A126848
:1015C00042F480321A60324B1B6803F400333B60F4
:1015D0007B6801337B603B68002B03D17B68B3F5EC
:1015E000A06FF0D12A4B1B6803F40033002B02D00C
:1015F00001233B6001E000233B603B68012B42D1AB
:10160000234B234A126C42F080521A64214B214A28
:10161000126842F480421A601D4B1D4A92689A601B
:101620001B4B1B4A926842F400429A60184B184ABE
:10163000926842F4A0529A60154B174A5A60144BB4
:10164000134A126842F080721A6000BF104B1B6888
:1016500003F00073002BF9D0104B40F205621A60C2
:101660000B4B0B4A926822F003029A60084B084A1F
:10167000926842F002029A6000BF054B9B6803F03B
:101680000C03082BF9D10C37BD465DF8047B70477D
:10169000003802400070004008544007003C0240FF
:1016A00080B582B000AF0346FB71FB79184600217C
:1016B000512200F091FC0837BD4680BD80B588B04E
:1016C00000AF0346FB71FB791846002100F088FB50
:1016D0000346FB83FB8BFF2BF5D00023FB83FB79B9
:1016E0001846022100F07CFB03469BB21B02FB83E1
:1016F000FB791846032100F073FB03469AB2FB8B7B
:101700001344FB83074B1B88FA8B9A4202D2FB8B54
:10171000002B02D1034B1B88FB83FB8B1846203721
:10172000BD4680BDA400002080B582B000AF3E4B16
:101730001B78002B3AD10023FB710BE0FB793B4A6D
:10174000D35C1846FFF7ACFF0A20FEF769FDFB7972
:101750000133FB71FB79042BF0D9EA231846FFF71C
:10176000ADFF0346DAB2324B1A70EE231846FFF78C
:10177000A5FF0346DAB22F4B1A70E0231846FFF795
:101780009DFF0346DAB22C4B1A70EC231846FFF784
:1017900095FF0346DAB2294B1A70E2231846FFF789
:1017A0008DFF0346DAB2264B1A7039E00023FB7135
:1017B0000BE0FB79234AD35C1846FFF771FF0A2040
:1017C000FEF72EFDFB790133FB71FB79042BF0D979
:1017D000E6231846FFF772FF0346DAB21A4B1A7077
:1017E000E2231846FFF76AFF0346DAB2144B1A7079
:1017F000E0231846FFF762FF0346DAB20E4B1A7079
:10180000E4231846FFF75AFF0346DAB20F4B1A706B
:10181000EE231846FFF752FF0346DAB2054B1A7063
:101820000837BD4680BD00BF3A0100205C24000897
:10183000670100206B010020640100206801002086
:1018400069010020642400086A010020650100206D
:1018500080B582B000AF78607A68174B9A420AD19F
:101860004FF400100121FFF781FB4FF4001000211D
:10187000FFF77CFB1CE07A68104B9A420AD14FF4C8
:1018800080000121FFF772FB4FF480000021FFF779
:101890006DFB0DE07A680A4B9A4209D14FF40000C3
:1018A0000121FFF763FB4FF400000021FFF75EFB0F
:1018B0000837BD4680BD00BF0054004000580040BE
:1018C000005C004080B58AB000AF786039600023CA
:1018D000FB8400237B840423BB84574BFB617B6820
:1018E0009B88FB84FB8C23F03F03FB8407F10C03F4
:1018F0001846FFF737FA7B69FB61FA694F4BA3FB88
:1019000002139B0C7B84FA8C7B8C1343FB847B68D7
:10191000FA8C9A807B681B889BB223F001039AB2F1
:101920007B681A800023FB843B681A68444B9A4208
:1019300015D83B681B685B00FA69B2FBF3F3BB8404
:10194000BB8C032B01D80423BB84FA8CBB8C1343C0
:10195000FB847B8C01339AB27B681A8440E03B683D
:10196000DA884BF6FF739A4209D13B681A6813462E
:101970005B001344FA69B2FBF3F3BB840EE03B68EF
:101980001A6813469B0013449A001344FA69B2FB89
:10199000F3F3BB84BB8C43F48043BB84BB8CC3F3A5
:1019A0000B03002B03D1BB8C43F00103BB84BA8C27
:1019B000FB8C13439BB26FEA43436FEA5343FB84B0
:1019C0007B8C4FF4967202FB03F31E4A82FB0312D8
:1019D0009211DB17D31A9BB201339AB27B681A8437
:1019E0007B68FA8C9A837B681B889BB243F0010367
:1019F0009AB27B681A807B681B88FB84FB8C23F47B
:101A0000816323F00203FB843B689A883B685B890F
:101A100013439AB2FB8C1343FB847B68FA8C1A80C5
:101A20003B689A893B681B8913439AB27B681A8189
:101A30002837BD4680BD00BF00127A0083DE1B43FD
:101A4000A0860100D34D621080B483B000AF7860EF
:101A50000B46FB70FB78002B08D07B681B889BB281
:101A600043F001039AB27B681A8007E07B681B8809
:101A70009BB223F001039AB27B681A800C37BD46F3
:101A80005DF8047B704700BF80B483B000AF78601E
:101A90000B46FB70FB78002B08D07B681B889BB241
:101AA00043F480739AB27B681A8007E07B681B88D6
:101AB0009BB223F480739AB27B681A800C37BD46C0
:101AC0005DF8047B704700BF80B483B000AF7860DE
:101AD0000B46FB70FB78002B08D07B681B889BB201
:101AE00043F400739AB27B681A8007E07B681B8816
:101AF0009BB223F400739AB27B681A800C37BD4600
:101B00005DF8047B704700BF80B483B000AF78609D
:101B100013460A46FA70BB70BB78002B04D0FB78E2
:101B200043F00103FB7003E0FB7823F00103FB703B
:101B3000FB789AB27B681A820C37BD465DF8047B4D
:101B4000704700BF80B483B000AF78600B46FB7075
:101B5000FB78002B08D07B681B889BB243F4806322
:101B60009AB27B681A8007E07B681B889BB223F4DB
:101B700080639AB27B681A800C37BD465DF8047B9F
:101B8000704700BF80B483B000AF78600B46FB7035
:101B9000FB78002B0AD07B681B889BB26FEA43431B
:101BA0006FEA53439AB27B681A8007E07B681B8810
:101BB0009BB2C3F30E039AB27B681A800C37BD4602
:101BC0005DF8047B704700BF80B483B000AF7860DD
:101BD0000B46FB70FB789AB27B681A820C37BD46C5
:101BE0005DF8047B704700BF80B483B000AF7860BD
:101BF0007B681B8A9BB2DBB218460C37BD465DF88A
:101C0000047B704780B487B000AF786039600023F0
:101C1000FB7500233B610023FB607B68FB603B6836
:101C20001B0F3B613B6823F07F433B603B69002B0C
:101C300003D0FB681433FB6005E03B681B0C3B6082
:101C4000FB681833FB60FB681A683B681340002B85
:101C500002D00123FB7501E00023FB75FB7D1846D4
:101C60001C37BD465DF8047B704700BF80B485B06B
:101C700000AF78600023FB730023BB730F237B73DB
:101C80007B68DB78002B37D0254BDB68DB4303F424
:101C9000E0631B0AFB73FB7BC3F10403BB737A7B1A
:101CA000FB7B42FA03F37B737B685B781A46BB7B52
:101CB00002FA03F3FB737B689A787B7B1340DAB2FA
:101CC000FB7B1343FB73FB7B1B01FB73154A7B6898
:101CD0001B781344FA7B83F80023124B7A6812783E
:101CE0005209D2B27968097801F01F01012000FA87
:101CF00001F143F822100EE00A4B7A68127852097B
:101D0000D2B27968097801F01F01012000FA01F1CF
:101D1000203243F822101437BD465DF8047B70472B
:101D200000ED00E000E100E080B582B000AF2A4B9A
:101D30001B78002B4DD14FF480000121FFF7DAF81A
:101D4000264B9B6818460121FFF7B6F8234B9B6989
:101D500018460121FFF7B0F84FF480000121FFF78A
:101D600005F94FF480000021FFF700F91B4B1A68BA
:101D70001A4B1B7B104619460422FFF7A5FB174B95
:101D80001A69164B1B7F104619460422FFF79CFB6D
:101D900002233B7102237B710123BB710023FB7182
:101DA0000E4B9B883B600D4B1A683B46104619460C
:101DB000FFF7EEFA094B9B8A3B60084B1A693B46DA
:101DC00010461946FFF7E4FA00F0C0F9024B012271
:101DD0001A700837BD4680BDD8000020A80000203A
:101DE00080B584B000AF02460B46FA71BB71002388
:101DF0007B814FF44053FB6071480121FFF744FEA3
:101E00004FF44053FB600CE0FB68002B03D0FB68F1
:101E1000013BFB6005E04FF0FF3000F0B9F90346ED
:101E2000C8E067486749FFF7EDFE0346002BEBD09B
:101E300063480021FFF786FEFB79614819460022BE
:101E4000FFF762FE4FF44053FB600CE0FB68002B91
:101E500003D0FB68013BFB6005E06FF0010000F080
:101E600097F90346A6E056485749FFF7CBFE0346CD
:101E7000002BEBD0524B1B8B4FF44053FB600CE01C
:101E8000FB68002B03D0FB68013BFB6005E06FF0B3
:101E9000020000F07DF903468CE049484B49FFF70A
:101EA000B1FE0346002BEBD0BB7945481946FFF73E
:101EB0008BFE4FF44053FB600CE0FB68002B03D01B
:101EC000FB68013BFB6005E06FF0030000F060F988
:101ED00003466FE03A483D49FFF794FE0346002B66
:101EE000EBD037483A49FFF78DFE0346002BE4D08C
:101EF00033480121FFF7C8FD4FF44053FB600CE06D
:101F0000FB68002B03D0FB68013BFB6005E06FF032
:101F1000040000F03DF903464CE029482949FFF749
:101F200071FE0346002BEBD0FB79254819460122B0
:101F3000FFF7EAFD4FF44053FB600CE0FB68002B19
:101F400003D0FB68013BFB6005E06FF0050000F08B
:101F50001FF903462EE01A481B49FFF753FE0346BC
:101F6000002BEBD0164B1B8B4FF44053FB600CE067
:101F7000FB68002B03D0FB68013BFB6005E06FF0C2
:101F8000060000F005F9034614E00D481149FFF77B
:101F900039FE0346002BEBD009480121FFF794FDE1
:101FA0000748FFF721FE03467B8105480121FFF723
:101FB000C9FD7B891BB218461037BD4680BD00BFE6
:101FC00000580040010000100200001080000010C6
:101FD000040000104000001080B584B000AF13462C
:101FE0000246FA710A46BA717B7100237B814FF475
:101FF0004053FB6050480121FFF746FD4FF440532A
:10200000FB600CE0FB68002B03D0FB68013BFB602E
:1020100005E04FF0FF3000F0BBF8034686E046488D
:102020004649FFF7EFFD0346002BEBD0FB79424812
:1020300019460022FFF768FD4FF44053FB600CE0A7
:10204000FB68002B03D0FB68013BFB6005E06FF0F1
:10205000010000F09DF8034668E037483849FFF773
:10206000D1FD0346002BEBD0334B1B8B4FF4405379
:10207000FB600CE0FB68002B03D0FB68013BFB60BE
:1020800005E06FF0020000F083F803464EE02A48B6
:102090002C49FFF7B7FD0346002BEBD0BB79264850
:1020A0001946FFF791FD4FF44053FB600CE0FB68CD
:1020B000002B03D0FB68013BFB6005E06FF00300E1
:1020C00000F066F8034631E01B481E49FFF79AFD11
:1020D0000346002BEBD07B7917481946FFF774FDB8
:1020E0004FF44053FB600CE0FB68002B03D0FB680F
:1020F000013BFB6005E06FF0040000F049F8034687
:1021000014E00D480F49FFF77DFD0346002BEBD08F
:1021100009480D49FFF776FD0346002BE4D0064839
:102120000121FFF7D1FC00237B817B891BB218467C
:102130001037BD4680BD00BF0058004001000010B0
:1021400002000010800000100400001080B584B070
:1021500000AF0023BB804BF6FF73FB8000233B8165
:102160004FF480637B814FF48043BB81064B3B601F
:1021700006480121FFF768FC3B4604481946FFF773
:10218000A1FB1037BD4680BDA0860100005800406D
:1021900080B584B000AF0346FB80FB88FB810B4811
:1021A0000121FFF791FC09480121FFF7EBFC0748EB
:1021B0000021FFF7E7FC0548FFF74AFBFFF7C6FFE2
:1021C000FB891BB218461037BD4680BD0058004041
:1021D00080B586B002AF786079807A703B707B887A
:1021E000002B00D13CE0786800F050F80023FB6041
:1021F00028E07A88FB6842FA03F303F00103002B1E
:1022000000D11CE0FB68DA08FB68D9087B6808315C
:1022100053F82110FB6803F007039B000F2000FA1E
:1022200003F3DB431940387FFB6803F007039B008F
:1022300000FA03F319437B68083243F82210FB6865
:102240000133FB60FB680F2BD3D97A887B78397810
:102250000091397E019178681146022200F02CF835
:102260001037BD4680BD00BF80B483B000AF78603A
:102270007B6803F13F4303F57E039B0A9BB218463C
:102280000C37BD465DF8047B704700BFB0B582B027
:1022900000AF7860074C074B1D6B7868FFF7E4FFD1
:1022A0000346012202FA03F32B4323630837BD469A
:1022B000B0BD00BF0038024080B584B000AF786088
:1022C00079807A703B707868FFF7CEFF0346BB7366
:1022D0000023FB7366E07A88FB7B42FA03F303F08A
:1022E0000103002B00D15AE0BA7BB97B304B33F8A5
:1022F000113099B2FB7B012000FA03F39BB20B4330
:102300009BB299B22A4B23F812107B68DA68FB7BE8
:102310005B00032101FA03F3DB431A40397EFB7BA8
:102320005B0001FA03F31A437B68DA607B681A6882
:10233000FB7B5B00032101FA03F3DB431A4079784E
:10234000FB7B5B0001FA03F31A437B681A607B781E
:10235000012B02D07B78022B21D17B685A68FB7B52
:10236000012101FA03F39BB2DB431A403978FB7B6E
:1023700001FA03F39BB21A437B685A607B689A6840
:10238000FB7B5B00032101FA03F3DB431A40397F37
:10239000FB7B5B0001FA03F31A437B689A60FB7BCB
:1023A0000133FB73FB7B0F2B95D91037BD4680BDE6
:1023B000DC00002080B500AF0848012100F012F8D1
:1023C0000346002B09D00548012100F035F8044BE5
:1023D0001B68002B01D0FFF7A7F980BD0004004067
:1023E000F400002080B485B000AF78600B467B809D
:1023F0000023FB730023BB8100237B817B681B8A46
:102400009AB27B881340BB817B689B899AB27B8898
:1024100013407B81BB89002B05D07B89002B02D028
:102420000123FB7301E00023FB73FB7B1846143789
:10243000BD465DF8047B704780B483B000AF786020
:102440000B467B807B88DB439AB27B681A820C3711
:10245000BD465DF8047B704730000000EAEEE0EC1A
:10246000E2000000E6E2E0E4EE000000253369004F
:1024700000000000000004000700000000480040C9
:1024800000C2010027000000000C02400001000013
:102490000800000008000000000C024000020000DC
:1024A0000800000009000000010000000000020018
:1024B000070000000044004000C2010026000000A8
:1024C00000000240040000000100000002000000C3
:1024D00000000240080000000100000003000000AE
:1024E00000000000010203040102030406070809BA
:1024F000440100202000000000000000000A00004D
:10250000007A030A0000000000000000010203043A
:102510000607080946001B000004024000040000F2
:10252000020000000A000000000402400008000051
:08253000020000000B00000096
:0400000508000000EF
:00000001FF
